{
  "abi": [
    {
      "type": "constructor",
      "inputs": [],
      "stateMutability": "nonpayable"
    },
    {
      "type": "function",
      "name": "executeTransaction",
      "inputs": [
        {
          "name": "to",
          "type": "address",
          "internalType": "address"
        },
        {
          "name": "value",
          "type": "uint256",
          "internalType": "uint256"
        },
        {
          "name": "operation",
          "type": "uint8",
          "internalType": "enum Enum.Operation"
        },
        {
          "name": "data",
          "type": "bytes",
          "internalType": "bytes"
        },
        {
          "name": "signatures",
          "type": "bytes",
          "internalType": "bytes"
        }
      ],
      "outputs": [
        {
          "name": "",
          "type": "bool",
          "internalType": "bool"
        }
      ],
      "stateMutability": "nonpayable"
    },
    {
      "type": "function",
      "name": "nonces",
      "inputs": [
        {
          "name": "owner",
          "type": "address",
          "internalType": "address"
        }
      ],
      "outputs": [
        {
          "name": "",
          "type": "uint256",
          "internalType": "uint256"
        }
      ],
      "stateMutability": "view"
    },
    {
      "type": "function",
      "name": "pocketVault",
      "inputs": [],
      "outputs": [
        {
          "name": "",
          "type": "address",
          "internalType": "contract Safe"
        }
      ],
      "stateMutability": "view"
    },
    {
      "type": "function",
      "name": "referenceSafe",
      "inputs": [],
      "outputs": [
        {
          "name": "",
          "type": "address",
          "internalType": "contract Safe"
        }
      ],
      "stateMutability": "view"
    },
    {
      "type": "function",
      "name": "setupPocket",
      "inputs": [
        {
          "name": "_referenceSafe",
          "type": "address",
          "internalType": "address"
        },
        {
          "name": "_pocketVault",
          "type": "address",
          "internalType": "address"
        }
      ],
      "outputs": [],
      "stateMutability": "nonpayable"
    },
    {
      "type": "event",
      "name": "ExecutedPocketTransaction",
      "inputs": [
        {
          "name": "nonce",
          "type": "uint256",
          "indexed": false,
          "internalType": "uint256"
        },
        {
          "name": "success",
          "type": "bool",
          "indexed": false,
          "internalType": "bool"
        }
      ],
      "anonymous": false
    },
    {
      "type": "event",
      "name": "Initialized",
      "inputs": [
        {
          "name": "version",
          "type": "uint64",
          "indexed": false,
          "internalType": "uint64"
        }
      ],
      "anonymous": false
    },
    {
      "type": "error",
      "name": "InvalidAccountNonce",
      "inputs": [
        {
          "name": "account",
          "type": "address",
          "internalType": "address"
        },
        {
          "name": "currentNonce",
          "type": "uint256",
          "internalType": "uint256"
        }
      ]
    },
    {
      "type": "error",
      "name": "InvalidInitialization",
      "inputs": []
    },
    {
      "type": "error",
      "name": "InvalidPocketSignature",
      "inputs": [
        {
          "name": "signature",
          "type": "bytes",
          "internalType": "bytes"
        }
      ]
    },
    {
      "type": "error",
      "name": "NotInitializing",
      "inputs": []
    }
  ],
  "bytecode": {
    "object": "0x6080604052348015600f57600080fd5b506016601a565b60ca565b7ff0c57e16840df040f15088dc2f81fe391c3923bec73e23a9662efc9c229c6a00805468010000000000000000900460ff161560695760405163f92ee8a960e01b815260040160405180910390fd5b80546001600160401b039081161460c75780546001600160401b0319166001600160401b0390811782556040519081527fc7f505b2f371ae2175ee4913f4499e1f2633a7b5936321eed1cdaeb6115181d29060200160405180910390a15b50565b610985806100d96000396000f3fe608060405234801561001057600080fd5b50600436106100575760003560e01c80633f1587e31461005c5780637ecebe00146100a557806385a40ec3146100dc578063b8a281aa146100e4578063fb1ba75a14610107575b600080fd5b7f10402ce5b06e792b45757dab2f6ba192bb7761b5295dc2a2997e5aaf4ff03401546001600160a01b03165b6040516001600160a01b0390911681526020015b60405180910390f35b6100ce6100b3366004610547565b6001600160a01b031660009081526020819052604090205490565b60405190815260200161009c565b61008861011c565b6100f76100f236600461062e565b61014a565b604051901515815260200161009c565b61011a6101153660046106f5565b6103b5565b005b7f10402ce5b06e792b45757dab2f6ba192bb7761b5295dc2a2997e5aaf4ff03400546001600160a01b031690565b6000606060006101817f10402ce5b06e792b45757dab2f6ba192bb7761b5295dc2a2997e5aaf4ff03401546001600160a01b031690565b9050600061018d61011c565b90506000826001600160a01b031663affed0e06040518163ffffffff1660e01b8152600401602060405180830381865afa1580156101cf573d6000803e3d6000fd5b505050506040513d601f19601f820116820180604052508101906101f39190610728565b9050816001600160a01b031663e86637db8c8c8b8b8e60008060008060008c6040518c63ffffffff1660e01b81526004016102389b9a9998979695949392919061078c565b600060405180830381865afa158015610255573d6000803e3d6000fd5b505050506040513d6000823e601f3d908101601f1916820160405261027d9190810190610828565b935061028761011c565b8451602086012060405163934f3a1160e01b81526001600160a01b03929092169163934f3a11916102be9188908b906004016108cb565b60006040518083038186803b1580156102d657600080fd5b505afa1580156102ea573d6000803e3d6000fd5b505050506000836001600160a01b031663468721a78d8d8c8c8f6040518663ffffffff1660e01b81526004016103249594939291906108f6565b6020604051808303816000875af1158015610343573d6000803e3d6000fd5b505050506040513d601f19601f82011682018060405250810190610367919061092d565b6040805184815282151560208201529192507f8c2ab06025856990cf95d938e93dc90db51272fd26a1a1e9f21b8a1ecd2fc9c4910160405180910390a19450505050505b9695505050505050565b7ff0c57e16840df040f15088dc2f81fe391c3923bec73e23a9662efc9c229c6a008054600160401b810460ff16159067ffffffffffffffff166000811580156103fb5750825b905060008267ffffffffffffffff1660011480156104185750303b155b905081158015610426575080155b156104445760405163f92ee8a960e01b815260040160405180910390fd5b845467ffffffffffffffff19166001178555831561046e57845460ff60401b1916600160401b1785555b7f10402ce5b06e792b45757dab2f6ba192bb7761b5295dc2a2997e5aaf4ff0340080546001600160a01b03808a166001600160a01b0319928316179092557f10402ce5b06e792b45757dab2f6ba192bb7761b5295dc2a2997e5aaf4ff03401805492891692909116919091179055831561052257845460ff60401b19168555604051600181527fc7f505b2f371ae2175ee4913f4499e1f2633a7b5936321eed1cdaeb6115181d29060200160405180910390a15b50505050505050565b80356001600160a01b038116811461054257600080fd5b919050565b60006020828403121561055957600080fd5b6105628261052b565b9392505050565b634e487b7160e01b600052604160045260246000fd5b604051601f8201601f1916810167ffffffffffffffff811182821017156105a8576105a8610569565b604052919050565b600067ffffffffffffffff8211156105ca576105ca610569565b50601f01601f191660200190565b600082601f8301126105e957600080fd5b81356105fc6105f7826105b0565b61057f565b81815284602083860101111561061157600080fd5b816020850160208301376000918101602001919091529392505050565b60008060008060008060a0878903121561064757600080fd5b6106508761052b565b95506020870135945060408701356002811061066b57600080fd5b9350606087013567ffffffffffffffff8082111561068857600080fd5b818901915089601f83011261069c57600080fd5b8135818111156106ab57600080fd5b8a60208285010111156106bd57600080fd5b6020830195508094505060808901359150808211156106db57600080fd5b506106e889828a016105d8565b9150509295509295509295565b6000806040838503121561070857600080fd5b6107118361052b565b915061071f6020840161052b565b90509250929050565b60006020828403121561073a57600080fd5b5051919050565b81835281816020850137506000828201602090810191909152601f909101601f19169091010190565b6002811061078857634e487b7160e01b600052602160045260246000fd5b9052565b6001600160a01b038c81168252602082018c9052610140604083018190526000916107ba8483018d8f610741565b92506107c9606085018c61076a565b60808401999099525060a082019690965260c081019490945291851660e0840152909316610100820152610120019190915295945050505050565b60005b8381101561081f578181015183820152602001610807565b50506000910152565b60006020828403121561083a57600080fd5b815167ffffffffffffffff81111561085157600080fd5b8201601f8101841361086257600080fd5b80516108706105f7826105b0565b81815285602083850101111561088557600080fd5b610896826020830160208601610804565b95945050505050565b600081518084526108b7816020860160208601610804565b601f01601f19169290920160200192915050565b8381526060602082015260006108e4606083018561089f565b82810360408401526103ab818561089f565b60018060a01b038616815284602082015260806040820152600061091e608083018587610741565b90506103ab606083018461076a565b60006020828403121561093f57600080fd5b8151801515811461056257600080fdfea26469706673582212202a87c4f5405ca2fd1da8e280f5887bb60b538d6d888d0a847d55f09a94bb16a464736f6c63430008190033",
    "linkReferences": {}
  },
  "methodIdentifiers": {
    "executeTransaction(address,uint256,uint8,bytes,bytes)": "b8a281aa",
    "nonces(address)": "7ecebe00",
    "pocketVault()": "3f1587e3",
    "referenceSafe()": "85a40ec3",
    "setupPocket(address,address)": "fb1ba75a"
  },
  "id": 94
}