{
  "abi": [
    {
      "type": "constructor",
      "inputs": [
        {
          "name": "safeProxyFactory",
          "type": "address",
          "internalType": "contract SafeProxyFactory"
        }
      ],
      "stateMutability": "nonpayable"
    },
    {
      "type": "function",
      "name": "createDeterministic",
      "inputs": [
        {
          "name": "referenceSafe",
          "type": "address",
          "internalType": "address"
        },
        {
          "name": "salt",
          "type": "bytes32",
          "internalType": "bytes32"
        }
      ],
      "outputs": [
        {
          "name": "",
          "type": "address",
          "internalType": "address"
        },
        {
          "name": "",
          "type": "address",
          "internalType": "address"
        }
      ],
      "stateMutability": "nonpayable"
    },
    {
      "type": "function",
      "name": "vaultSetup",
      "inputs": [
        {
          "name": "salt",
          "type": "bytes32",
          "internalType": "bytes32"
        },
        {
          "name": "referenceSafe",
          "type": "address",
          "internalType": "address"
        }
      ],
      "outputs": [],
      "stateMutability": "nonpayable"
    },
    {
      "type": "error",
      "name": "ERC1167FailedCreateClone",
      "inputs": []
    }
  ],
  "bytecode": {
    "object": "0x60e060405234801561001057600080fd5b506040516111f73803806111f783398101604081905261002f91610088565b306080526001600160a01b03811660a05260405161004c9061007b565b604051809103906000f080158015610068573d6000803e3d6000fd5b506001600160a01b031660c052506100b8565b610a50806107a783390190565b60006020828403121561009a57600080fd5b81516001600160a01b03811681146100b157600080fd5b9392505050565b60805160a05160c0516106bb6100ec6000396000818160c401526102dd015260006101c401526000609101526106bb6000f3fe608060405234801561001057600080fd5b50600436106100365760003560e01c8063bde65be81461003b578063c4868bab14610050575b600080fd5b61004e6100493660046104b1565b610087565b005b61006361005e3660046104e1565b6101af565b604080516001600160a01b0393841681529290911660208301520160405180910390f35b6001600160a01b037f00000000000000000000000000000000000000000000000000000000000000001630036100bc57600080fd5b3060006100e97f000000000000000000000000000000000000000000000000000000000000000085610341565b60405163610b592560e01b81526001600160a01b0380831660048301529192509083169063610b592590602401600060405180830381600087803b15801561013057600080fd5b505af1158015610144573d6000803e3d6000fd5b5050604051637d8dd3ad60e11b81526001600160a01b0386811660048301523060248301528416925063fb1ba75a9150604401600060405180830381600087803b15801561019157600080fd5b505af11580156101a5573d6000803e3d6000fd5b5050505050505050565b60008060006101be84866103b5565b905060007f00000000000000000000000000000000000000000000000000000000000000006001600160a01b0316631688f0b9876001600160a01b031663a619486e6040518163ffffffff1660e01b8152600401602060405180830381865afa15801561022f573d6000803e3d6000fd5b505050506040513d601f19601f82011682018060405250810190610253919061050d565b6040516001600160e01b031960e084901b168152610278919086908a90600401610577565b6020604051808303816000875af1158015610297573d6000803e3d6000fd5b505050506040513d601f19601f820116820180604052508101906102bb919061050d565b604051603881018290526f5af43d82803e903d91602b57fd5bf3ff60248201527f00000000000000000000000000000000000000000000000000000000000000006014820152733d602d80600a3d3981f3363d3d373d3d3d363d738152605881018790526037600c82012060788201526055604390910120909150969095509350505050565b6000763d602d80600a3d3981f3363d3d373d3d3d363d730000008360601b60e81c176000526e5af43d82803e903d91602b57fd5bf38360781b1760205281603760096000f590506001600160a01b0381166103af576040516330be1a3d60e21b815260040160405180910390fd5b92915050565b604080516001808252818301909252606091600091906020808301908036833701905050905030816000815181106103ef576103ef6105ab565b6001600160a01b03928316602091820292909201810191909152604080516024808201899052938716604480830191909152825180830390910181526064909101825291820180516001600160e01b03166317bccb7d60e31b179052516104669284926001923092600091829182918291016105c1565b60408051601f198184030181529190526020810180516001600160e01b031663b63e800d60e01b17905291505092915050565b6001600160a01b03811681146104ae57600080fd5b50565b600080604083850312156104c457600080fd5b8235915060208301356104d681610499565b809150509250929050565b600080604083850312156104f457600080fd5b82356104ff81610499565b946020939093013593505050565b60006020828403121561051f57600080fd5b815161052a81610499565b9392505050565b6000815180845260005b818110156105575760208185018101518683018201520161053b565b506000602082860101526020601f19601f83011685010191505092915050565b6001600160a01b038416815260606020820181905260009061059b90830185610531565b9050826040830152949350505050565b634e487b7160e01b600052603260045260246000fd5b6101008082528951908201819052600090610120830190602090818d01845b828110156106055781516001600160a01b0316855293830193908301906001016105e0565b50505050896020840152610624604084018a6001600160a01b03169052565b82810360608401526106368189610531565b91505061064e60808301876001600160a01b03169052565b6001600160a01b03851660a08301528360c083015261067860e08301846001600160a01b03169052565b999850505050505050505056fea26469706673582212202bf22c3d97d9d650cbfe8be83f338d6f25fe69dfef342b39eb11411f62e4b52364736f6c634300081900336080604052348015600f57600080fd5b506016601a565b60ca565b7ff0c57e16840df040f15088dc2f81fe391c3923bec73e23a9662efc9c229c6a00805468010000000000000000900460ff161560695760405163f92ee8a960e01b815260040160405180910390fd5b80546001600160401b039081161460c75780546001600160401b0319166001600160401b0390811782556040519081527fc7f505b2f371ae2175ee4913f4499e1f2633a7b5936321eed1cdaeb6115181d29060200160405180910390a15b50565b610977806100d96000396000f3fe608060405234801561001057600080fd5b50600436106100575760003560e01c80632bbcf6a21461005c5780633f1587e3146100845780637ecebe00146100c857806385a40ec3146100ff578063fb1ba75a14610107575b600080fd5b61006f61006a366004610609565b61011c565b60405190151581526020015b60405180910390f35b7f10402ce5b06e792b45757dab2f6ba192bb7761b5295dc2a2997e5aaf4ff03401546001600160a01b03165b6040516001600160a01b03909116815260200161007b565b6100f16100d63660046106bb565b6001600160a01b031660009081526020819052604090205490565b60405190815260200161007b565b6100b0610384565b61011a6101153660046106dd565b6103b2565b005b6000606060006101537f10402ce5b06e792b45757dab2f6ba192bb7761b5295dc2a2997e5aaf4ff03401546001600160a01b031690565b9050600061015f610384565b90506000826001600160a01b031663affed0e06040518163ffffffff1660e01b8152600401602060405180830381865afa1580156101a1573d6000803e3d6000fd5b505050506040513d601f19601f820116820180604052508101906101c59190610710565b60405163e86637db60e01b81529091506001600160a01b0383169063e86637db90610209908d908d908d908d90600090819081908190819081908e90600401610774565b600060405180830381865afa158015610226573d6000803e3d6000fd5b505050506040513d6000823e601f3d908101601f1916820160405261024e9190810190610810565b9350610258610384565b8451602086012060405163934f3a1160e01b81526001600160a01b03929092169163934f3a119161028f9188908b906004016108b3565b60006040518083038186803b1580156102a757600080fd5b505afa1580156102bb573d6000803e3d6000fd5b505060405163468721a760e01b8152600092506001600160a01b038616915063468721a7906102f6908e908e908e908e9088906004016108e8565b6020604051808303816000875af1158015610315573d6000803e3d6000fd5b505050506040513d601f19601f82011682018060405250810190610339919061091f565b6040805184815282151560208201529192507f8c2ab06025856990cf95d938e93dc90db51272fd26a1a1e9f21b8a1ecd2fc9c4910160405180910390a19a9950505050505050505050565b7f10402ce5b06e792b45757dab2f6ba192bb7761b5295dc2a2997e5aaf4ff03400546001600160a01b031690565b7ff0c57e16840df040f15088dc2f81fe391c3923bec73e23a9662efc9c229c6a008054600160401b810460ff16159067ffffffffffffffff166000811580156103f85750825b905060008267ffffffffffffffff1660011480156104155750303b155b905081158015610423575080155b156104415760405163f92ee8a960e01b815260040160405180910390fd5b845467ffffffffffffffff19166001178555831561046b57845460ff60401b1916600160401b1785555b7f10402ce5b06e792b45757dab2f6ba192bb7761b5295dc2a2997e5aaf4ff0340080546001600160a01b03808a166001600160a01b0319928316179092557f10402ce5b06e792b45757dab2f6ba192bb7761b5295dc2a2997e5aaf4ff03401805492891692909116919091179055831561051f57845460ff60401b19168555604051600181527fc7f505b2f371ae2175ee4913f4499e1f2633a7b5936321eed1cdaeb6115181d29060200160405180910390a15b50505050505050565b80356001600160a01b038116811461053f57600080fd5b919050565b634e487b7160e01b600052604160045260246000fd5b604051601f8201601f1916810167ffffffffffffffff8111828210171561058357610583610544565b604052919050565b600067ffffffffffffffff8211156105a5576105a5610544565b50601f01601f191660200190565b600082601f8301126105c457600080fd5b81356105d76105d28261058b565b61055a565b8181528460208386010111156105ec57600080fd5b816020850160208301376000918101602001919091529392505050565b60008060008060006080868803121561062157600080fd5b61062a86610528565b945060208601359350604086013567ffffffffffffffff8082111561064e57600080fd5b818801915088601f83011261066257600080fd5b81358181111561067157600080fd5b89602082850101111561068357600080fd5b6020830195508094505060608801359150808211156106a157600080fd5b506106ae888289016105b3565b9150509295509295909350565b6000602082840312156106cd57600080fd5b6106d682610528565b9392505050565b600080604083850312156106f057600080fd5b6106f983610528565b915061070760208401610528565b90509250929050565b60006020828403121561072257600080fd5b5051919050565b81835281816020850137506000828201602090810191909152601f909101601f19169091010190565b6002811061077057634e487b7160e01b600052602160045260246000fd5b9052565b6001600160a01b038c81168252602082018c9052610140604083018190526000916107a28483018d8f610729565b92506107b1606085018c610752565b60808401999099525060a082019690965260c081019490945291851660e0840152909316610100820152610120019190915295945050505050565b60005b838110156108075781810151838201526020016107ef565b50506000910152565b60006020828403121561082257600080fd5b815167ffffffffffffffff81111561083957600080fd5b8201601f8101841361084a57600080fd5b80516108586105d28261058b565b81815285602083850101111561086d57600080fd5b61087e8260208301602086016107ec565b95945050505050565b6000815180845261089f8160208601602086016107ec565b601f01601f19169290920160200192915050565b8381526060602082015260006108cc6060830185610887565b82810360408401526108de8185610887565b9695505050505050565b60018060a01b0386168152846020820152608060408201526000610910608083018587610729565b90506108de6060830184610752565b60006020828403121561093157600080fd5b815180151581146106d657600080fdfea26469706673582212202c9f0bf557533298499190e2d8e7af3c018896609b74a34ab9cb1d4a27fce67764736f6c63430008190033",
    "linkReferences": {}
  },
  "methodIdentifiers": {
    "createDeterministic(address,bytes32)": "c4868bab",
    "vaultSetup(bytes32,address)": "bde65be8"
  },
  "id": 57
}